:100000000C9446000C945D000C945D000C945D0013
:100010000C945D000C945D000C945D000C945D00EC
:100020000C945D000C945D000C945D000C945D00DC
:100030000C945D000C945D000C945D000C945D00CC
:100040000C945D000C945D000C945D000C945D00BC
:100050000C945D000C945D000C945D000C945D00AC
:100060000C945D000C945D000C945D000C945D009C
:100070000C945D000C945D000C945D000C945D008C
:100080000C945D000C945D000C945D0011241FBE67
:10009000CFEFD0E4DEBFCDBF11E0A0E0B1E0E8E3F8
:1000A000F1E000E00BBF02C007900D92AE30B10747
:1000B000D9F70E9470000C949A000C940000CF9322
:1000C000C82F8A3019F48DE00E945F008091C00033
:1000D00085FFFCCFC093C60080E090E0CF910895EB
:1000E00011B88FEF82B987B918B880B18095A9F09F
:1000F0009FEF980F923098F09DEF980F923088F014
:100100009BEF980F923078F099EF980F933068F04A
:100110008A50833060F48EE30BC080E409C080E62F
:1001200007C080E705C088E303C08CE301C08FE30C
:0801300088B9DBCFF894FFCF82
:0E01380000000002000000005F000000000058
:00000001FF
