:100000000C9446000C9465000C9465000C946500FB
:100010000C9465000C9465000C9465000C946500CC
:100020000C9465000C9465000C9465000C946500BC
:100030000C9465000C9465000C9465000C946500AC
:100040000C9465000C9465000C9465000C9465009C
:100050000C9465000C9465000C9465000C9465008C
:100060000C9465000C9465000C9465000C9465007C
:100070000C9465000C9465000C9465000C9465006C
:100080000C9465000C9465000C94650011241FBE4F
:10009000CFEFD0E4DEBFCDBF11E0A0E0B1E0E8E6F5
:1000A000F2E000E00BBF02C007900D92AE30B10746
:1000B000D9F721E0AEE0B1E001C01D92A231B20754
:1000C000E1F70E9424010C9432010C940000CF93BC
:1000D000C82F8A3019F48DE00E9467008091C0001B
:1000E00085FFFCCFC093C60080E090E0CF910895DB
:1000F00080B1809580930E01209110013091110103
:1001000022303105D1F138F42115310569F0213063
:10011000310589F06CC024303105E9F1A8F12530B2
:10012000310509F453C063C081E090E09093110160
:100130008093100160C0813039F482E090E09093A8
:1001400011018093100157C0823039F483E090E0B0
:1001500090931101809310014EC0833039F485E0F3
:1001600090E0909311018093100145C081E090E0F0
:1001700090931101809310013EC084E090E0909331
:1001800011018093100137C084E090E09093110139
:100190008093100130C09FEF980F923038F484E0C4
:1001A00090E0909311018093100125C0833039F4C1
:1001B00085E090E090931101809310011CC081E0D4
:1001C00090E0909311018093100115C0815082300E
:1001D00038F485E090E090931101809310010BC0FA
:1001E00081E090E0909311018093100104C010927F
:1001F0001101109210018091100190911101833032
:10020000910589F085309105C9F00297C9F4809174
:100210000F01893020F089E080930F0111C08F5FBA
:1002200080930F010DC080910F01811103C01092C6
:100230000F0106C0815080930F0102C010920F0180
:1002400080910F0188B90895109211011092100148
:1002500011B88FEF82B987B918B810920F010E94B8
:080260007800FDCFF894FFCFF8
:0E02680000000002000000006700000000001F
:00000001FF
