:100000000C9446000C9465000C9465000C946500FB
:100010000C9465000C9465000C9465000C946500CC
:100020000C9465000C9465000C9465000C946500BC
:100030000C9465000C9465000C9465000C946500AC
:100040000C9465000C9465000C9465000C9465009C
:100050000C9465000C9465000C9465000C9465008C
:100060000C9465000C9465000C9465000C9465007C
:100070000C9465000C9465000C9465000C9465006C
:100080000C9465000C9465000C94650011241FBE4F
:10009000CFEFD0E4DEBFCDBF11E0A0E0B1E0EEE0F5
:1000A000F2E000E00BBF02C007900D92AE30B10746
:1000B000D9F721E0AEE0B1E001C01D92A231B20754
:1000C000E1F70E94F9000C9405010C940000CF9315
:1000D000C82F8A3019F48DE00E9467008091C0001B
:1000E00085FFFCCFC093C60080E090E0CF910895DB
:1000F00080B1809580930E01209110013091110103
:100100002230310501F138F42115310561F021303B
:10011000310581F03CC02430310539F1E8F025305B
:10012000310561F134C081E090E09093110180933A
:10013000100131C0813039F482E090E090931101D8
:100140008093100128C0813039F483E090E09093CF
:100150001101809310011FC0813039F484E090E0D8
:10016000909311018093100116C0813039F485E01D
:1001700090E090931101809310010DC0813039F40B
:1001800081E090E0909311018093100104C01092DF
:100190001101109210018091100190911101833092
:1001A0009105A9F030F48130910549F0029759F09A
:1001B0001AC08430910579F0059789F014C085E064
:1001C00080930F0112C08AE080930F010EC084E17A
:1001D00080930F010AC088E280930F0106C08FE36D
:1001E00080930F0102C010920F0180910F0185B919
:1001F0000895109211011092100111B88FEF82B979
:0E02000084B915B80E947800FDCFF894FFCFA6
:0E020E00000000020000000067000000000079
:00000001FF
